:020000041000EA
:10000000002008205D0100101B0100101D010010E0
:100010001101001011010010110100101101001058
:100020001901001019010010190100101F01001022
:10003000110100101901001021010010230100100E
:100040001101001011010010110100101101001028
:100050001101001011010010110100101101001018
:100060001101001011010010110100101101001008
:1000700011010010110100101101001011010010F8
:1000800011010010110100101101001011010010E8
:1000900011010010110100101101001011010010D8
:1000A00011010010110100101101001011010010C8
:1000B00011010010110100101101001011010010B8
:1000C00011010010110100101101001011010010A8
:1000D0001101001011010010110100101101001098
:1000E0001101001011010010110100101101001088
:1000F0001101001011010010110100101101001078
:100100001101001011010010110100101101001067
:10011000EFF30580103800BE00BE00BE00BE00BE7A
:1001200000BE00BEF2EB887108FA011038FA011027
:10013000A001001090A31AE7D3DEFFFF42012110B7
:10014000FF010000E8140200793512AB4FF0000007
:100150001E49086006C881F3088810474FF05040D8
:10016000006810B14FF00000F2E70DA40ECC00299A
:1001700002D000F012F8F9E71549164A002000E015
:1001800001C19142FCD11449884714498847144958
:10019000884700BEFDE701C901C29A42FBD3704700
:1001A00038FA011020010020081D0020201602103E
:1001B000000008200000082020160210001008206F
:1001C00000100820000000007047000008ED00E06B
:1001D000081D002008920020119C00102902001028
:1001E000099C0010F8B500BF10B5054C237833B951
:1001F000044B13B1044800E000BF0123237010BD7D
:10020000881E00200000000034C8011008B5034B10
:100210001BB10349034800E000BF08BD0000000017
:100220008C1E002034C801102DE9F04F87B009F072
:1002300067FE7F4809F0AEFE00F0CCFC04F07AFCCB
:1002400002F054F905F05EFA04F070FC00F022FDB3
:10025000002840F0BB8303F01DFB03F01BFA0028CD
:1002600000F0758401F0B8FB724806F00DF902F059
:1002700029F8002840F03B846F4CDFF8E8A1DFF854
:10028000E8B16E4E6E4F6F4D00214FF0FF300AF017
:10029000CDFC01F06DFB04F0CFFD012820D003F070
:1002A00007FA8046E0B107F019FB00230A46134322
:1002B00000F00E834FF47A7200231CF035FAA0EBA5
:1002C0000800B0F5967F0BD35F4809F063FE5F48E6
:1002D00000F078FD012004F0B5FD002840F01F83F8
:1002E00004F0AAFD012800F00A8206F00DF880460D
:1002F000002840F00182336883B107F0EFFA4346EB
:100300000A46134300F0E0824FF47A7200231CF097
:100310000BFA3368C01A0028C0F2CF8203F04EFAFD
:10032000002840F0CA828046404604F001FC9BF859
:100330000090B9F1000F00F09980FF23444A137038
:100340002378002B00F0B380032B00F00C8207F021
:10035000C5FA00230A46134300F09A8200234FF4A3
:100360007A721CF0E1F9DAF80030C01A002880F245
:10037000988207F0B3FA00230A46134300F0B282D2
:100380004FF47A7200231CF0CFF9324B1B68C01A6D
:10039000C72840D907F0A2FA00230A46134300F009
:1003A000BA824FF47A7200231CF0BEF9294B186010
:1003B00002F0D6F92378012B00F0C28258B301F085
:1003C00087FF80460146244809F0B4FE234800F028
:1003D000F9FC404644F6206102F07AFA002800F069
:1003E000B5821F4800F0EEFC02210022032002F03B
:1003F00095FB0323237007F071FA00230A46134389
:1004000000F074824FF47A7200231CF08DF900F52D
:100410009660CAF8000005F077FF002800F01A8106
:100420003B68002B40F0028205F0B8FF2CE700BFCC
:1004300038C80110053C0010D09000200C36002078
:10044000803A0020D34D6210D8C8011014C90110A1
:10045000B0130020743A0020D8CA0110F8CA011065
:1004600010CC011058360020CF90002001F02AFF58
:1004700000283FF465AFDE4A137843453FF460AF90
:10048000B8F1020F82F8008000F02682B8F1030F65
:100490004A4600F03B82B8F1010F00F01E82494647
:1004A000042002F03BFB2378002B7FF44DAF01F0DA
:1004B00009FF002800F0C58001F0FCFE20B102F029
:1004C0004FF9002800F0BD8007F008FA00230A4623
:1004D000134300F017824FF47A7200231CF024F9C2
:1004E000C44B1B68C01AC72840F2AB8007F0F6F96E
:1004F00000230A46134300F01F8200234FF47A7250
:100500001CF012F903464FF00008BA4A0DF10E0133
:1005100003A81360ADF80C80ADF80E8002F02CF942
:10052000002800F08E80BDF80E20BDF80C10B248F7
:1005300009F000FEB14800F045FCB14803F0DCF8DA
:1005400007F0CCF943460A46134300F008824FF403
:100550007A7200231CF0E8F8386007F0BFF9002336
:100560000A46134300F0F7814FF47A7200231CF01F
:10057000DBF800F51673A249A248336009F0DAFDF2
:10058000A14800F01FFC03F0BDF809F0DDFF0A22CE
:100590000023CDE900011CF0C7F8DDE900014FF0B0
:1005A0000008303262F3070800230A221CF0BCF86E
:1005B0000A2200231CF0B8F8DDE90001303262F3B2
:1005C0000F28002364221CF0AFF80A2200231CF03D
:1005D000ABF8DDE90001303262F3174800234FF435
:1005E0007A721CF0A1F80A2200231CF09DF8DDE9C4
:1005F0000001303262F31F68002342F21072CDF81E
:1006000010801CF091F80A2200231CF08DF8DDE91F
:10061000000102F1300C00237C4A8DF814C01CF05C
:1006200083F80A2200231CF07FF80023303204A84C
:100630008DF815208DF8163005F098FF002800F091
:1006400092812378002B7FF47FAE05F05DFE0028B9
:100650007FF4E6AE00F052FB00283FF415AE94F8AC
:100660000080B8F1000F7FF40FAE01F02BFE0028E0
:100670003FF40AAE01F02CFE8146002800F07A819A
:1006800004A90DF10E00ADF80E80ADF8108002F057
:1006900073F8002800F08281BDF81020BDF80E101C
:1006A0005B4809F047FD02221146104602F036FA77
:1006B0000123237007F012F943460A46134300F062
:1006C00081814FF47A7200231CF02EF84FF001085C
:1006D00000F5EA434F4930334F48CAF800308BF8F1
:1006E000008009F027FD4D4800F06CFB40460022D9
:1006F000052102F013FAC7E54FF0010814E605F0F2
:10070000D1FE804600283FF4F0AD02F0CBFF8146D9
:1007100000287FF4EAAD07F0E1F84B460A461343A0
:1007200000F006814FF47A7200231BF0FDFF42F2C5
:100730000F73A0EB080898457FF6D7AD384809F04D
:1007400029FC384800F03EFB002004F07BFB002829
:100750003FF4CBAD322007F013F8002211461046CB
:1007600007F008FBC1E507F0B9F800230A46134378
:1007700000F0C0804FF47A7200231BF0D5FFDAF846
:100780000030C01A0028FFF646AE002323708BF815
:10079000003001F097FD00283FF43DAE01F098FDD8
:1007A000804600287FF437AE0123237007F096F8C7
:1007B00043460A46134300F0FD804FF47A7200234B
:1007C0001BF0B2FF4FF0010800F5EA433033164941
:1007D0001148CAF800308BF8008009F0ABFC0F48D4
:1007E00000F0F0FA40460022052102F097F912E6E7
:1007F000B0130020783A00208CC90110BCC9011048
:10080000D0C90110D8C901101CCA0110A08601006E
:1008100028CB01105CCB0110A8C80110C4C801107E
:1008200030C9011070C9011070CA011007F056F8E4
:1008300000230A46134361D04FF47A7200231BF061
:1008400073FF42F20F733A68801A98423FF6ECAD9C
:10085000CC49CD4809F06EFCCC4800F0B3FA07F063
:100860003DF800230A461343844629D04FF47A7298
:1008700000231BF059FF002300F5167030603B6029
:1008800002F01CFF02F03EFF012005F043FDFBE4F7
:10089000A5FB0030DAF800308009C01A0028FFF606
:1008A00068ADBB4809F076FBBA4800F08BFABA484D
:1008B00000F088FA0022042198E54FF0020833E5A1
:1008C000A5FB0C308009D6E7A5FB0030800920E5A8
:1008D000A5FB00308009F2E403224146404602F0C5
:1008E0001DF92DE5A5FB003080094EE5A5FB003084
:1008F00080098CE5A5FB0030800940E7A5FB0030AE
:1009000080099EE7A5FB00308009E9E54046042107
:1009100002F004F914E5A5FB0030800946E5322019
:1009200006F02EFF00221146104607F023FAD7E406
:10093000A5FB00308009FAE6A5FB00239B09E2E550
:1009400000287FF468AD0223237064E5924800F02C
:1009500039FA042149E5A5FB0030800909E6A5FB29
:1009600000308009F8E58D4809F014FB8C4800F050
:1009700029FA66E60123237006F0B0FF4B460A46CB
:1009800013431BD04FF47A7200231BF0CDFE00F509
:10099000EA434FF00108303382499DE6824809F06E
:1009A000F9FA824800F00EFA01220421022002F036
:1009B000B5F869E4A5FB0023980903E7A5FB00232C
:1009C0009809E4E7A5FB002398097FE606F086FF77
:1009D00000230A46134300F0C3804FF47A720023C9
:1009E0001BF0A2FE81460025009500F059F9CB4688
:1009F000AA462F462E468046002844D006F06EFFB9
:100A000000230A4613435CD04FF47A7200231BF094
:100A10008BFE044641F26F73A4EB09029A425AD846
:100A20004FF4C87303FB02F3614AA6EB0B06A2FB6B
:100A30000323DB092644C3F5FA73B6EB530F24BF37
:100A400087F001070026002F14BF0320002004F0C8
:100A50006FF8AF420ED0009BE31A3B2B0AD93D46FC
:100A6000002F13BF0421002104200320002202F0E4
:100A700055F80094052006F083FEA34600F010F917
:100A800080460028BAD104F053F84246414604207B
:100A900002F044F8BAF1000F3FF4DDAB454809F02D
:100AA00079FA05F045F804F0F3FC02F01FF8322063
:100AB00006F066FE42464146404607F05BF9FFF706
:100AC000CABB3D4BA3FB003441F26F73A409A4EBF6
:100AD00009029A42A4D9BAF1000F46D0032004F0CB
:100AE00027F80520C24606F04BFEA346C6E701F0F4
:100AF000EFFB054600287FF4BFAB01232F4C2F46A8
:100B0000237006F0EBFE0E4656EA0702034633D08A
:100B10004FF47A7200231BF007FE012500F5EA432B
:100B2000DFF8A8A0DFF8A8B0303325492548CAF877
:100B300000308BF8005009F0FDFA234800F042F92C
:100B400028460022052101F0E9FFFFF79ABB02F0D9
:100B5000B3FA00283FF486AB03F03EF8FFF782BB00
:100B60004FF47A73B0FBF3F93DE7524604210320BA
:100B700001F0D4FF4546B1E74FF47A70B3FBF0F0D3
:100B8000CBE700BFCCCB0110DCCB011000CC0110B7
:100B90008CCA0110ACCA0110C4CA011028CA0110C5
:100BA0005CCA011010CB011078CB0110B4CB01103E
:100BB000F119760558C80110D34D6210D09000206D
:100BC00088C80110A8C80110C4C8011058360020F8
:100BD000CF900020F8B50C2005F05CFE00240C201E
:100BE00044EC440001212246234D05F03BFE052044
:100BF00006F0C6FD2C6006F071FE27460E4656EA4A
:100C0000070230D04FF47A7200231BF08DFD2B6861
:100C100013B1C31A132B2CD94FF0504328605B68D3
:100C2000164A83F48053C3F300331370144A1548F3
:100C30001549137003700B7006F050FE00250C462A
:100C400054EA0502034607D000234FF47A721BF0E2
:100C50006BFD0E4B1860F8BD0D48A0FB03300B4B2D
:100C600080091860F8BD03460948A0FB03308009DD
:100C7000CDE7024B1B78D9E7843A0020D3900020BF
:100C8000CA900020DE900020D19000203C2400205B
:100C9000D34D6210014B1878704700BFD1900020EF
:100CA00038B506F01BFE00250C4654EA050215D0A7
:100CB0004FF47A7200231BF037FD0D4A136813B10D
:100CC000C31A132B10D94FF0504310605868094BCA
:100CD00080F48050C0F30030187038BD03460648D9
:100CE000A0FB03308009E8E7024B187838BD00BF4D
:100CF000843A0020D3900020D34D6210D0B506F086
:100D0000EDFD00230A4613432BD04FF47A720023E3
:100D10001BF00AFD044606F0E1FD00270E4656EAE8
:100D20000702034622D04FF47A7200231BF0FCFC2A
:100D30001D4A136813B1C31A132B32D94FF0504315
:100D400010605868194B80F48050C0F30030187060
:100D5000174B1A7882420ED0164A18701460002081
:100D6000D0BD154BA3FB0034A409D4E71248A0FB67
:100D700003308009DCE7114A137883420FD00D4B12
:100D80001B68E31A272B0AD9107040B10C4A13686C
:100D90001BB1E31AB3F5C87F01D31460D0BD0020A6
:100DA000D0BD024B1878D3E7843A0020D3900020BE
:100DB000CA9000203C240020D34D6210DE90002019
:100DC0007C3A00202DE9F04782B0E846274BDFF857
:100DD000A0A0CDE900030DF1080958F8047B3846BE
:100DE0001AF0BCFF054606F079FD00230A461343BE
:100DF00038D04FF47A7200231BF096FC064600248C
:100E0000DDB106F06BFD00230A4613431DD04FF4FD
:100E10007A7200231BF088FC801BB0F5FA6FA5EBFB
:100E2000040207EB040108D200200AF07BFD044411
:100E300000200AF031FDA5420BD8C845CDD10020D5
:100E400002B0BDE8F0470AF027BDAAFB00308009D8
:100E5000E2E700214FF0FF3009F0E8FE012006F044
:100E60008FFCCEE7AAFB0036B609C8E72CCC0110F0
:100E7000D34D6210FFF7A6BF2DE970432448FFF75A
:100E8000A1FF0123234E337006F028FD00230A46FC
:100E9000134333D04FF47A7200231BF045FC00F566
:100EA0006A5418341C4D12E04FF47A7200231BF080
:100EB0003BFC001B002819DA00214FF0FF3009F03D
:100EC000B5FEFFF71BFFF8B9022006F059FC06F04B
:100ED00005FD4FF00009884658EA09020346E3D1B0
:100EE000A5FB03308009001B0028E5DB00240B482C
:100EF0003470FFF767FF2046BDE87083044606485C
:100F0000A0FB0434A009CAE700233370BDE8708356
:100F100030CC0110C5900020D34D621040CC0110A0
:100F2000104BD0B51C6824B90F48FFF74BFF0020C9
:100F3000D0BD06F0D3FC00270E4656EA0702034652
:100F400009D10A48A0FB03308009094B241A9C42AE
:100F5000EAD80120D0BD4FF47A7200231BF0E4FBE5
:100F6000F3E700BFE0350020B8D20110D34D621086
:100F7000C0D401002DE9F04F5B4CADF5737D5B49AA
:100F800020461AF00DFE002800F08F8158492046B7
:100F90001AF006FE002840F0CD8013231B78023B98
:100FA000DBB2022B96BF534A534B52F823302193A6
:100FB00001F088F9514B524A002808BF1A4619928D
:100FC00002F068FB4F4B504A002808BF1A461A929D
:100FD00002F03CFB159002F045FB169002F03CFB42
:100FE0004342179302F030FC484A494B49490028D4
:100FF00008BF1A460C681B92002C40F09181464BAA
:101000001F9303F019FF04F057FA189002F04AFBFF
:10101000424D434C002814BF2B4623461C93FFF738
:1010200039FE2B46002808BF23461D9301F0D0FD52
:10103000834601F03FF9002840F06981394B209345
:1010400001F082FB064601F085FB374C374B22ADA1
:10105000002808BF1C46002001F00EF91E90002059
:1010600001F016F90746012001F006F9804601203B
:1010700001F00EF9814601F017F9824601F0E6FF12
:10108000209BCDE90C640B931D9B1E9C09931C9B1C
:1010900013900893189B284607931F9B244A069396
:1010A0001B9B4FF4A0710593179BCDF828B00493B8
:1010B000169BCDE9119A0393159BCDE90F78029306
:1010C0001A9B0193199B0093219B0E9408F046FDF7
:1010D000B0F5A07F80F2FB802846FFF773FE0DF588
:1010E000737DBDE8F08F00BF1C33002030CD0110B0
:1010F00040CD011020CC011050CC01106CCC01105F
:1011000060CC01107CCC011074CC0110C0D901104E
:101110008CCC0110E035002090CC0110A4CC011043
:10112000A8CC0110B4CC0110C0CC0110C8CC011067
:1011300048CD0110AD4920461AF032FD0546002881
:1011400000F0CC80AA4920461AF02AFD0546002866
:1011500000F0B2801022A74920461AF02DFE054665
:10116000002800F08B81A44920461AF019FD05469D
:10117000002800F0C381A14920461AF011FD002883
:1011800000F021819E4920461AF00AFD002800F057
:10119000D7819C4920461AF003FD002800F0E48125
:1011A000994920461AF0FCFC002800F0F18197498B
:1011B00097481AF0F5FC002800F0F98106229549BD
:1011C00093481AF0F9FD002800F0FA8192499048FE
:1011D0001AF0E6FC002800F01B8290498C481AF0B7
:1011E000DFFC002800F03C828D4989481AF0D8FCC9
:1011F000002800F06A828B4985481AF0D1FC8146AC
:10120000002800F06A82884981481AF0C9FC002849
:1012100000F0928285497E481AF0C2FC002800F056
:10122000E98283497A481AF0BBFC002800F0358334
:101230000922804976481AF0BFFD002840F03C831F
:101240007D497E481AF0ACFC002800F04F837C49B1
:101250007A481AF0A5FC002840F06083012403F0CE
:10126000EBFDA04200F05583FFF706FE00283FF497
:1012700036AF204603F0E6FD002800F0408320460C
:1012800004F01AF96F4A03464FF4A07122A808F03F
:1012900065FC22A8FFF796FD642006F071FA002293
:1012A0001146104606F066FD19E76748FFF78AFD0C
:1012B0000DF5737DBDE8F08F644B1C68002C6AD17E
:1012C0006348FFF77FFD0DF5737DBDE8F08F614842
:1012D000FFF778FD0DF5737DBDE8F08F02F0DAF9C8
:1012E000044688BB06F0FAFA27460E4656EA07027D
:1012F00003464AD15848A0FB0323980900F5EA3376
:10130000524AC03355481360FFF75CFDE7E600F032
:10131000D3FF534A534B002808BF1A4620928FE64A
:1013200006F0DCFA00230A461343054628D04FF4A2
:101330007A7200231BF0F8F94B4B241A9C423FF6BB
:101340005EAE4A4B1F935CE6FFF796FD00283FF424
:10135000C6AE06F0C3FA2F460E4656EA070203460B
:1013600000F008814FF47A7200231BF0DDF900F5DC
:10137000EA33364AC0333E481360FFF723FDAEE63A
:101380003548A0FB05308009D6E74FF47A72002378
:101390001BF0CAF9B2E706F0A1FA2F460E4656EA4C
:1013A0000702034600F0D3804FF47A7200231BF04B
:1013B000BBF92D4B241A9C4282D804F00FFB2D4818
:1013C000FFF700FD8BE602F0ABFB0446002800F0BF
:1013D000C38002F047F922AD034600942846264A0E
:1013E0004FF4A07108F0BAFB76E600BF2CCE0110D6
:1013F0008CCE01109CCE0110C8CE0110DCCE0110A5
:1014000014CF011028CF011044CF011070CF01106C
:101410001C33002000D001108CD00110A0D001108E
:10142000FCD001102CD101101CCD011098D101105D
:10143000ACD10110D0D10110DCD101102533002036
:101440000CC9011044D2011038CD0110E035002044
:10145000B8D2011008CE0110D34D62103CCE01105D
:10146000ACCC0110BCCC0110C0D4010098CC011050
:1014700068CE0110A4D20110E4CE0110B64B1C6856
:10148000002C3FF41DAF06F029FA2F460E4656EA0F
:101490000702034673D04FF47A7200231BF044F91D
:1014A000AE4B241A9C423FF60BAF2021AC481AF0F9
:1014B00005FB0446002841D00025A948257004F00A
:1014C00059FB0428064639D0013420461AF046FC60
:1014D0002346009022AA72A84FF4F07122950CF0D6
:1014E000B9F858BB229A72A9304604F087FA9D4B8E
:1014F0009D4AA84214BF1846104661E7964B1C68E7
:10150000002C3FF4DDAE06F0E9F92F460E4656EA10
:101510000702034646D04FF47A7200231BF004F909
:101520008E4B241A9C423FF6CBAE04F08BFA58B394
:1015300002F052FB8D48FFF745FCD0E58A483FE7B3
:101540008B4804F08DFC8B48FFF73CFCC7E58A48CC
:10155000A0FB032398092CE722AD2C46874E0FCE23
:101560000FC433682370B7E504F070FC8448FFF7BC
:1015700029FCB4E58048A0FB03239809F7E67E48E0
:10158000A0FB032398098BE77E48FFF71BFCA6E529
:10159000FFF772FC88B1012002F034F97A48FFF7B6
:1015A00011FC9CE57448A0FB03239809B8E702F0FE
:1015B00029F97648FFF706FC91E502F023F98EE55C
:1015C00000F080FE00287CD000F082FEA379054662
:1015D000202B00F00181FFF74FFC00283FF47FAD86
:1015E0006B48FFF7EFFB47F23051A8B201F070F9FA
:1015F00000287FD000F06CFE2B460090654A22A8A0
:101600004FF4A07108F0AAFA22A8FFF7DBFB66E509
:1016100072A801F049FB00284FD0BDF800327F9C32
:10162000BDF8F8017D99BDF8F02108937B9BCDE9C9
:101630000604059104920DF5ED710DF2D1120DF233
:10164000E3140393CDE90114009272AB22A8524A2D
:101650004FF4A07108F082FA22A8FFF7B3FB3EE531
:1016600000F04EFE4D4C4E4B4E4D002808BF1C4620
:1016700001F0AEFA064600F03DFE074600F02EFEF1
:10168000804600F031FE484B002808BF1D4600F0A0
:1016900011FE002840F0A5804448CDE90350CDE973
:1016A00001780096234622A8414A4FF4A07108F021
:1016B00055FA22A8FFF786FB11E53E48FFF782FBAB
:1016C0000DE53D48FFF77EFB09E572A801F0BAFA87
:1016D000A0B93A48FFF776FB01E572A84FF4007114
:1016E00001F090FA8246002840F09F803448FFF7CE
:1016F00069FBF4E43348FFF765FBF0E422AD2E46C6
:101700001224314FDFF8CC800FCF0FC63B680DF2AB
:10171000E71726F8023B1B0C33700DF2C71616F8BC
:10172000013FC4F5A0712819424608F017FAB742E4
:1017300004F10204F3D1CFE4FFF79EFB00283FF44D
:10174000CEAC01F0D3F9214A214B002814BF10463A
:101750001846FFF737FBC2E4E0350020C0D4010093
:101760002C330020D0CC0110E4CC0110B0CE0110FD
:10177000750E00101CCF0110D34D621000CF011068
:1017800034CF0110C4CE011054CF011084CF01100A
:10179000B0CF0110E0CF011008D00110F8CC01103B
:1017A000FCCC0110A4CC0110A8CC0110B4CC0110C9
:1017B000B4D0011088D0011098CF0110F8D00110DA
:1017C00028D10110FCCF01100CD1011000CD011067
:1017D00018CD011020D10110534819F0E7FC05463F
:1017E000F9E600F069FD514B514A002814BF184634
:1017F000104652E7FFF794FB00283FF470ACFFF768
:101800003BFB00283FF46BAC01F056FC00287BD07A
:1018100002F0E2F901F01AFC0346464A22A84FF40E
:10182000A07108F09BF922A8CAE522AD5346424AAE
:101830004FF4A071284608F091F92846FFF7C2FA44
:10184000DFF824B1DFF824814B465A464FF4A071EB
:10185000284608F083F9AAEB090772ABBFB203EB85
:1018600009060446202F94BFF71906F1200716F841
:10187000013BC4F5A0712819424608F06FF9BE4239
:1018800004F10204F3D109F1200928461FFA89F96D
:10189000FFF798FACA45D7D821E42848FFF792FA0B
:1018A000642005F06DFF09F02DF94FF4FA7005F092
:1018B00067FF09F031F912E4214922481AF070F962
:1018C000D8B121491F481AF06BF9044680B9FFF7D7
:1018D00027FB00283FF403AC1C48FFF773FA642091
:1018E00005F04EFF2146204606F0C4FA0446B6E451
:1018F0001748FFF767FAFFF7F2BB1648CAE4164825
:10190000FFF760FAFFF7EBBB1448FFF75BFAFFF74E
:10191000E6BB03F0D1FD124A03467FE71148FFF70B
:1019200051FAFFF7DCBB00BF23330020ACCC011021
:10193000BCCC011074D1011044D10110BCD10110F4
:1019400060D201101C33002074D2011080D201102B
:1019500090D2011068D2011028D2011094D1011048
:101960000CD20110E8D1011068D1011020D1011072
:1019700070B50025164C174E82B0002009F038FFD4
:101980000DF10701D8B10122002009F03DFF012827
:1019900015D19DF807300D2BEFD022680A2B02F1EC
:1019A00001010ED0B1F5207F4FF000003CBF216057
:1019B000B35409F01DFF0DF107010028E3D102B077
:1019C00070BDB5540AB92560D7E7FFF7D3FAFAE737
:1019D0009C3500201C33002000230249024A0B6082
:1019E000136070479C350020E035002070B400245F
:1019F0000325134B13498FB0CDE90113061D124A7D
:101A00008DF80E408DF80D008DF80F608DF80C509C
:101A10009369DC0606D49369D806FCD413689369ED
:101A2000D906F8D5084A01A904A893699B06FCD4F5
:101A300011F8013B81421360F7D10FB070BC7047C1
:101A4000FFFF0100EF01FFFF0080074070B499B075
:101A50008DF8040011B10B68CDF805309DF8062013
:101A60009DF805309DF8071013449DF808200833B1
:101A70000B4407261146144C144D13440344CDE97E
:101A80000B5401985BBA124AADF83A308DF83460C5
:101A9000CDF835008DF839109369DC0606D49369CA
:101AA000D806FCD413689369D906F8D5084A0BA95F
:101AB0000FA893699B06FCD411F8013B8142136087
:101AC000F7D119B070BC7047FFFF0100EF01FFFFB5
:101AD0000080074070B499B08DF8040000292FD021
:101AE0000A788DF805200425431D174C1748134428
:101AF000CDE90B40BDF80410C3F30726144A8DF856
:101B000038308DF837608DF83450ADF83510936962
:101B1000DC0606D49369D806FCD413689369D90609
:101B2000F8D50B4A0BA90DF1390093699B06FCD43B
:101B300011F8013B81421360F7D119B070BC7047B6
:101B40009DF80520CFE700BFEF01FFFFFFFF010079
:101B5000008007402DE9F04F99B0824600911C4665
:101B600090460AB10023137005F0B8FE00270E4618
:101B700056EA0702034600F09A804FF47A72002377
:101B80001AF0D2FD044400267E4F7F4D0FE04FF443
:101B90007A7200231AF0C8FD001B002813DAAB6923
:101BA000D90614D500214FF0FF3009F03FF805F0B9
:101BB00095FE00230A461343E9D1A7FB00308009B4
:101BC000001B0028EBDBFF2019B0BDE8F08FAB69EC
:101BD000DA06FCD42B68DBB20EB1012B05D0A3F1E1
:101BE000EF06B6FA86F67609E1E70DF117070DF173
:101BF0001E09644E644D0FE04FF47A7200231AF010
:101C000093FD001B0028DEDAAB69DB060ED5002150
:101C10004FF0FF3009F00AF805F060FE00230A4695
:101C20001343E9D1A6FB00308009EAE7AB69D80687
:101C3000FCD42B6807F8013FB945EDD19DF81C3065
:101C4000072B58D19DF81D309DF81E20019342EAC4
:101C50000323A3F103091FFA89F9B9F13D0F029299
:101C600049D8023B9BB20DF1200B03930DF12103E8
:101C70005F469944434E444D0FE04FF47A7200237F
:101C80001AF052FD001B00289DDAAB69D90636D543
:101C900000214FF0FF3008F0C9FF05F01FFE0023C0
:101CA0000A461343E9D1A6FB00308009EAE735482C
:101CB000A0FB0330800965E7AB6913F01003FBD18B
:101CC0002A6807F8012BB94538D1DDE901249DF8D0
:101CD00014109DF81500224440EA0120039C0732AD
:101CE00000B201331BF8011B9BB29C420A44F8D896
:101CF00012B290422CD0FE2019B0BDE8F08FAB6933
:101D0000DA06FCD42B6807F8013BB945C5D105AF0D
:101D10000DF116091B4E1C4D10E04FF47A72002392
:101D20001AF002FD001B0028BFF64DAFAB69DB06C1
:101D3000C2D500214FF0FF3008F078FF05F0CEFD4E
:101D400000230A461343E8D1A6FB00308009E9E7E7
:101D5000BAF1000F13D0B8F1000F10D0039B012B84
:101D60000DD0009A013BDBB29A4228BF1A46934637
:101D70000DF12101504619F055FD88F800B09DF88D
:101D8000200021E7D34D6210008007402DE9F04F7D
:101D9000CBB0CDE9021005F0A1FD00250C4654EAB8
:101DA000050200F0A7804FF47A7200231AF0BCFC01
:101DB0000023DFF81082824C019300F6B83A002528
:101DC00010E04FF47A7200231AF0AEFCA0EB0A0088
:101DD000002816DAA369DA0617D500214FF0FF3084
:101DE00008F024FF05F07AFD00270E4656EA0702A8
:101DF0000346E6D1A8FB03308009A0EB0A000028C7
:101E0000E8DB01984BB0BDE8F08FA369DB06FCD49A
:101E10002368DBB20DB1012B05D0A3F1EF05B5FAB4
:101E200085F56D09DEE70DF11F050DF1260610E0C1
:101E30004FF47A7200231AF077FCA0EB0A00002816
:101E4000DFDAA369DF0611D500214FF0FF3008F07B
:101E5000EDFE05F043FD4FF0000C8B465BEA0C02F3
:101E60000346E5D1A8FB03308009E6E7A369D8065D
:101E7000FCD4236805F8013FB542EAD19DF824B0AF
:101E80009DF825309DF82620BBF1020F04930592A2
:101E900042EA032602D0BBF1080FB2D1022EB0D91C
:101EA000A6F102091FFA89F9B9F5807FA9D8033E86
:101EB0000DF129030AAF13FA86F63D4610E04FF400
:101EC0007A7200231AF030FCA0EB0A00002898DA9E
:101ED000A369D90614D500214FF0FF3008F0A6FE03
:101EE00005F0FCFC00230A461343E8D1A8FB0030B0
:101EF0008009E9E703463348A0FB0330800957E730
:101F0000A369DA06FCD4236805F8013BAE42E7D1A9
:101F100007AD0DF11E0611E04FF47A7200231AF09E
:101F200003FCA0EB0A000028BFF66BAFA369DB0639
:101F30000ED500214FF0FF3008F078FE05F0CEFC02
:101F400000230A461343E7D1A8FB00308009E8E7E5
:101F5000A36913F01003FBD1226805F8012BAE42F0
:101F6000ECD19DF81C109DF81D00049A40EA012058
:101F700005995A440A4400B2013317F8011B9BB279
:101F800099450A44F8D812B290427FF43AAF019DC5
:101F9000029A95420ED2531B9BB2994528BF99468F
:101FA000039B4A4658190AA9A94419F03BFC1FFA99
:101FB00089F30193BBF1080F7FF401AF21E700BF64
:101FC00000800740D34D62102DE9F04F97B00446D2
:101FD00005F084FC00270E4656EA070200F0A380B5
:101FE0004FF47A7200231AF09FFB04444FF000086C
:101FF000DFF8DC91754D0FE04FF47A7200231AF090
:1020000093FB001B002815DAAB69D90616D5002111
:102010004FF0FF3008F00AFE05F060FC00270E4686
:1020200056EA07020346E7D1A9FB03308009001BEB
:102030000028E9DBFF2017B0BDE8F08FAB69DA06B6
:10204000FCD42B68DBB2B8F1000F01D0012B06D015
:10205000A3F1EF08B8FA88F84FEA5818DCE70DF159
:102060000F070DF116085A4E584D0FE04FF47A72D3
:1020700000231AF059FB001B0028DBDAAB69DB06F2
:1020800011D500214FF0FF3008F0D0FD05F026FCFF
:102090004FF0000B8A465AEA0B020346E6D1A6FB34
:1020A00003308009E7E7AB69D806FCD42B6807F852
:1020B000013F4745EAD19DF81430072B56D19DF8D2
:1020C00016309DF81580019343EA0823A3F1030914
:1020D0001FFA89F9B9F13D0F48D8023B0DF1180BF1
:1020E0001FFA83FA0DF119035F469944384E374DB4
:1020F0000FE04FF47A7200231AF016FB001B002841
:1021000098DAAB69D90635D500214FF0FF3008F0D9
:102110008DFD05F0E3FB00230A461343E9D1A6FB3E
:1021200000308009EAE703462948A0FB0330800914
:102130005BE7AB6913F01003FBD12A6807F8012BAA
:10214000B94536D19DF80C109DF80D00019A40EA72
:1021500001204244073200B201331BF8011B9BB23D
:102160009A450A44F8D812B290422CD0FE2017B0FB
:10217000BDE8F08FAB69DA06FCD42B6807F8013BA9
:102180004F45C6D103AF0DF10E09114E0F4D10E0B2
:102190004FF47A7200231AF0C7FA001B0028BFF62A
:1021A00049AFAB69DB06C4D500214FF0FF3008F022
:1021B0003DFD05F093FB00230A461343E8D1A6FB3F
:1021C00000308009E9E79DF8180034E700800740F7
:1021D000D34D6210002370B53C25072460F307033C
:1021E00061F30F2361F3174362F31F63DAB24432E2
:1021F000C3F3072198B01144C3F307428DF804508C
:102200000A441A4D1A49CDF8053002EB13629DF8C5
:1022100008600198CDE90B5152BA0093154B8DF827
:102220003960ADF83A20CDF835008DF834409A6920
:10223000D60606D49A69D506FCD41A689A69D406DB
:10224000F8D50C4A0BAB0FA990698006FCD413F8A3
:10225000010B8B421060F7D14FF4FA70FFF7B4FE18
:10226000B0FA80F0400918B070BD00BFEF01FFFF69
:10227000FFFF01000080074010B1034B1888704732
:10228000024B1888704700BFBA900020BC90002015
:1022900010B1034B18887047024B1888704700BF75
:1022A000B6900020B8900020014B1868704700BF1E
:1022B0008C3A0020012070474FF050435868C0F31B
:1022C00080107047014B1878704700BFD5900020F0
:1022D000014B1888704700BFC0900020014B188840
:1022E000704700BFBE900020014B1878704700BFB8
:1022F000DB900020014B1868704700BF845000201D
:102300002DE9F04F0024DFF8D481DFF8D491DFF815
:10231000D4A16D4EDFF8D0B185B088F80040C9F87F
:102320000040AAF8004034808BF8004005F0D6FA4F
:1023300023460A46134300F0B7804FF47A72002315
:102340001AF0F2F9614F624C00F5C87505F0C6FA53
:1023500000230A46134300F08F804FF47A72002363
:102360001AF0E2F9854210D81BE04FF47A7200238C
:102370001AF0DAF9401B002813DAA369DA066CD5E3
:1023800000214FF0FF3008F051FC05F0A7FA0023C0
:102390000A461343E9D1A7FB00308009401B0028FF
:1023A000EBDB00274B4C4A4E04F1140B54F8045B52
:1023B0003046294605F068FB142005F0E1F902A932
:1023C00013200297FFF742FB4FF4C870FFF7FCFDA4
:1023D000FF2855D0C9F80050002D14BF29464FF4EE
:1023E00061413B4805F050FBD9F80030002B57D035
:1023F000002298F80030019293B9022401A9132019
:10240000FFF724FB4FF4FA70FFF7DEFDB0FA80F31C
:102410005B0988F80030002C40D0013C0028EDD149
:1024200000231D208DF80330FFF7E0FA02A84FF4D7
:10243000FA730DF103020821FFF78CFB002839D154
:102440009DF80330012B35D99DF808309DF809100F
:1024500041EA0321AAF800102EE0A369DB06FCD4B0
:1024600023683288DBB20132552B32807FF46EAFA5
:1024700001238BF8003094E7A7FB0030800971E757
:102480003520FFF7B3FA4FF4C870FFF79DFDFF2822
:10249000A0D1A3458AD1D9F800509DE70028BFD02C
:1024A000002005B0BDE8F08F05460848A0FB0535C3
:1024B000A80947E7BAF80010074807F03BFE0120DB
:1024C00005B0BDE8F08F00BFBE900020D34D621074
:1024D0000080074000D30110C4D30110D590002024
:1024E00084500020C0900020DB9000202DE9F04FA8
:1024F00004208BB004F0CEF90024042044EC440006
:102500000122214604F0AEF9052004F0C3F90520AC
:1025100044EC44004FF05045214641F270740122D2
:1025200004F0A0F9022005F02BF96A686B68744E7C
:10253000DFF80882734FDFF80892C2F30012C3F38A
:1025400040136968D5F804A0C1F3001BC9060AF05E
:102550002000CAF3401A02D531880131318020B100
:10256000B8F800100131A8F80010934502D03A885D
:1025700001323A809A450DD0B9F800306420013319
:102580000021A9F8003005F0E5F8013C08D05346D9
:102590005A46D6E76420002105F0DCF8013CF6D16C
:1025A0004FF0FF334FF05040DFF898A1564ACAF879
:1025B0000030D2F828E044687146C4F34014059016
:1025C0004FF0000B05E005984568C5F34015A5429E
:1025D00064D1956A4D48A5EB0E058542F3D9BBF150
:1025E000000F40F0878000221346CAF8002005241F
:1025F000B9F80010B8F800200393CDE901213B8819
:10260000328800940421424807F094FD4FF4614160
:10261000404805F0B7F90221042004F007F92046EC
:10262000022104F003F9002301220821394805F0B2
:1026300079FA0121374805F0ABFA062004F02AF9AF
:102640000620002141EC4400012204F00BF9FFF7C1
:1026500057FE314B1A7872B3002838D000231D2062
:102660008DF81F30FFF7C2F94FF4FA730DF11F0216
:10267000082108A8FFF76EFA00282ED0274B1988EA
:10268000274807F057FD274B1B7823B10022042071
:102690001146FFF79FFD0BB0BDE8F08FD2F828C0C0
:1026A0002C46BCEB010104D099423CBF0B464FF0D5
:1026B000010B61468DE701241B4A1C4915881C4A01
:1026C000097815801B4A1C7011700028C6D11A4861
:1026D00007F060FC0BB0BDE8F08F9DF81F30012BB8
:1026E000CCD99DF820209DF821100C4B41EA022105
:1026F0001980C5E75A1CCAF800307FF478AF72E73A
:10270000BC900020B890002000000B405FAE0A0093
:1027100054D3011000800740C7900020C0900020D3
:10272000C4D30110D5900020BE900020DB90002083
:10273000B4900020C8900020A4D30110BA900020CB
:10274000B69000208C3A0020014B1888704700BFDB
:10275000B4900020014B1878704700BFC89000204B
:10276000044B187820B14FF050435868C0F38010E4
:10277000704700BFD5900020F0B54E4B9BB01C7841
:102780008CB14D4B1B8873B14FF050435B685D06B5
:1027900009D5064601200D46FFF728F94FF4FA70D7
:1027A000FFF712FC18B1002420461BB0F0BD012336
:1027B00002200DF102018DF80230FFF78BF94FF482
:1027C0007A70FFF701FC0028EDD14FF0FF0C0422D6
:1027D00063460827DFF8F4E08DF80C20CDF80DE013
:1027E0009DF80D109DF80E200D3111449DF80F201D
:1027F0008DF811C011449DF810208DF803000A4493
:102800001344BDF810202D49ADF841202C4A0398FF
:102810008DF84430CDE90D12C3F307238DF8433012
:10282000284BCDF83D00CDF804E08DF808C08DF8B8
:102830003C709A69D00606D49A69D106FCD41A680D
:102840009A69D206F8D51F4A0DA90DF14500936982
:102850009B06FCD411F8013B81421360F7D10DA80F
:102860004FF4FA630DF103020821FFF773F9002812
:1028700099D19DF80330032B95D94FF050435B68F5
:1028800013F0400311D036B19DF834209DF8353057
:1028900043EA02233380002D86D09DF836209DF830
:1028A000373043EA02232B807EE707481C4607F0B7
:1028B00071FB79E7D5900020C0900020EF01FFFF69
:1028C000FFFF0100008007405CD40110010000FF01
:1028D0002DE9F0437D4F99B097F80080B8F1000FD3
:1028E00003D1404619B0BDE8F0830D46814604F09F
:1028F000F5FF00230A461343044600F083804FF49B
:102900007A72002319F010FF0121714E05448DF8F1
:102910002C103B788BB100220120FFF75BFC0CE010
:102920004FF47A72002319F0FFFE401B002817DADB
:1029300000214FF0FF3008F079F90120FFF756F839
:102940004FF49670FFF740FBD0B104F0C7FF0023AF
:102950000A461343E4D1A6FB0034D5EB9413E7D425
:102960003B7823B1032204210220FFF733FC4FF010
:102970000008584807F00EFB404619B0BDE8F08348
:1029800002200BA9FFF7A6F84FF47A70FFF71CFBA3
:102990000028E5D13B7823B1022211461046FFF70B
:1029A00019FC9DF82C30012B17D00133DBB2022B20
:1029B0008DF82C302ED8012B0CBF01210521A8E762
:1029C0004FF47A72002319F0AFFE401B0028C7DADB
:1029D00000214FF0FF3008F029F90120FFF706F839
:1029E0004FF49670FFF7F0FA044680B904F076FFD2
:1029F00023460A461343E3D1A6FB003CD5EB9C13C8
:102A0000E6D4ADE73248A0FB043080097CE79DF8AE
:102A10002C30CAE70520FEF7E9FF4FF47A70FFF784
:102A2000D3FA00289CD1012206214FEA19238DF800
:102A300001308DF80020BDF800202748ADF80520B2
:102A40005FFA89F213440E338DF83A301B0A8DF881
:102A50003930224B8DF807208DF80410019CCDE908
:102A60000B038DF802201E4ACDF835408DF8341046
:102A70009369DC0606D49369D806FCD4136893697D
:102A8000D906F8D516490BAA0DF13B008B699B06B8
:102A9000FCD412F8013B82420B60F7D14FF47A70FC
:102AA000FFF792FA00287FF45BAF0E4A397813885B
:102AB0000133138021B1022103220846FFF78AFB6C
:102AC0004946094807F036FB0BE700BFD5900020C8
:102AD000D34D621034D30110EF01FFFFFFFF01005F
:102AE00000800740C090002014D30110094B10B59E
:102AF0001C7814B90024204610BD0D20FEF776FF87
:102B00004FF4FA60FFF760FA0028F3D1024B188007
:102B1000204610BDD5900020C090002070B5284BF5
:102B20000446187898B008B918B070BD00233C204E
:102B3000072564F3070361F30F2361F3174362F37F
:102B40001F63DAB24432C3F307211144C3F30742CF
:102B50000A441C4C1C49CDF805308DF8040002EBEA
:102B6000136201989DF80860CDE90B4152BA0093B9
:102B7000164B8DF83450ADF83A20CDF835008DF86D
:102B800039609A69D50606D49A69D406FCD41A68C5
:102B90009A69D006F8D50D4A0BAB0FA89169890642
:102BA000FCD413F8011B83421160F7D14FF4FA7083
:102BB000FFF70AFAB0FA80F0400918B070BD00BF04
:102BC000D5900020EF01FFFFFFFF010000800740CC
:102BD00008B5074B1B780BB9064808BD064B074ADA
:102BE0001B881021064806F0B9FF054808BD00BF44
:102BF000D590002054D40110C0900020F8CF0110CF
:102C00009488002038B50D4B1B78A3B198B10446C9
:102C100016200D46FEF7EAFE40F6B830FFF7D4F96D
:102C200028B929462046BDE83840FFF7AFB801462D
:102C3000034807F07FFA002038BD00BFD590002080
:102C400028D4011070B5174B8AB01D7835B328B35E
:102C500000230DF10601044634208DF806308DF86E
:102C60000730FEF737FF02A84FF47A730DF1070221
:102C70002021FEF76FFF88B99DF807301F2B0DD973
:102C800002AE0FCE20606160A260E3600FCE2061D3
:102C900028466161A261E3610AB070BD0025284643
:102CA0000AB070BDD5900020F0B50446ADF5057DA5
:102CB000002800F089803C22002118F091FE484B4A
:102CC0001F78002F77D01620FEF790FE40F6B83020
:102CD000FFF77AF9064600287BD104AD4FF4007166
:102CE0002846FFF753F81F2898BF014664D94FF4D0
:102CF0001653EC46A97BEA7B287942EA012203FBC2
:102D000002F3AA68E3626B7912BA43EA00236262B3
:102D10002385297D6A7DEB6B42EA01221BBA22865C
:102D2000636395F87E2095F87F30009443EA022390
:102D3000238704F10903019304F112031B34CDE945
:102D40000234B6460BAE32465CF8043B03CA596007
:102D5000DA79186012F0DF0283F808E006F108065D
:102D600023D19C79DA7114F0DF041ED15A799C7159
:102D700012F0DF0219D119795A7111F0DF0114D163
:102D8000DA78197112F0DF020FD19978DA7011F048
:102D9000DF010AD15A78997012F0DF0205D1197853
:102DA0005A7011F0DF0108BF19706545CBD1384664
:102DB0000DF5057DF0BD394600270A4807F0BAF940
:102DC00038460DF5057DF0BD074638460DF5057D05
:102DD000F0BD0146044807F0ADF90021ECE700BF63
:102DE000D5900020F8D3011028D4011070B5072A1F
:102DF00082B016460C4624D9A2F1080525F0070535
:102E000008350D4407F0A0FB6B46CDE900010834FE
:102E100003CB44F8080C44F8041CAC42F2D106F091
:102E2000070616B9002002B070BD07F08DFB3246D0
:102E3000CDE900012846694618F0F4FC002002B0F4
:102E400070BD0D46EDE700BF2DE9F041DAB006ACEC
:102E5000804620460F4611F0B7FB1DA817F00CFF67
:102E6000022011F0C5FB0146204611F0CDFB80B1D8
:102E700000251DA817F00AFF204611F0A9FB4FF40A
:102E800000620021674818F0ABFD28465AB0BDE843
:102E9000F08132AE054694E8030086E80300304630
:102EA00011F00AFC0238022894BF33992946002306
:102EB0005D4A032010F09EFA0028D9D101464FF454
:102EC0000062584818F08CFD4FF4006255492046C6
:102ED00012F0D4F90028CBD1524818F03FFF5149E5
:102EE0000246384602F08AFD0028C1D031465AAB6E
:102EF00005A82246059311F0DDFF011EB8DB08ADE1
:102F000005982A4615F09CFA0028B1D1E97CAA7CE4
:102F10006B7C0DA8CDE901210093444A444B40212C
:102F200006F01CFEB8F1000F74D00DAB414A6021D1
:102F3000414806F013FE21461DA817F0C3FE2146A6
:102F40001DA817F0C1FE3C491DA817F0BFFE0028C0
:102F50008ED139491DA817F0BDFE002888D109215E
:102F60001DA817F0ABFE02211DA817F0A5FE07F063
:102F7000EBFACDE9080195E8030086E8030007F0C5
:102F8000E3FACDE908019DF8C83034AA95E80300BA
:102F900003F07F0382E80300102231461DA88DF85C
:102FA000C83017F09BFE00287FF462AF234A244903
:102FB0001DA817F0A1FE00287FF45AAF01464FF07C
:102FC000FF321DA817F0BEFE00287FF451AF80210C
:102FD0001DA817F00FFF054600287FF449AF0146F2
:102FE0004FF400620F4818F0FBFC00950E4B4FF4B5
:102FF00000620C491DA818F0BDF800287FF438AF16
:10300000084818F0ABFE07490246404602F0F6FCBD
:1030100005462EE70DAB0B4A40210B4806F09EFDFE
:1030200083E700BF44410020ED2D0010A8D401101B
:103030009CD40110BCD4011034880020C4D40110E9
:10304000D4D40110A8DB0110A035002010B5174C16
:10305000B2B0237813B1154832B010BD00F0A2FB16
:1030600068B102460AA932AB04A8049311F022FF0A
:10307000011E04DB05AA049815F0E2F928B12378B3
:10308000002BE8D10A4832B010BD9DF827109DF8FA
:1030900026209DF82530CDE901210093054A044BF7
:1030A0004021204606F05AFDE9E700BFA035002088
:1030B0009CD40110A8D4011030B52E48B3B006F04E
:1030C00069FF02F08BFC01210020FFF7BDFEE0B19B
:1030D00003210220FFF7B8FE044670B102F0B2FCF3
:1030E000044600283FD0244D2B78BBB12249234809
:1030F00007F020F8204633B030BD214806F04AFFE3
:1031000002F06CFC204633B030BD04461D4806F08A
:1031100041FF02F063FC204633B030BD00F042FBBB
:10312000E0B102460AA932AB04A8049311F0C2FE32
:10313000011E13DB05AA049815F082F970B99DF8F9
:1031400027109DF826209DF82530CDE90121009318
:103150000D4A0E4B4021284606F000FD2B78002B2F
:10316000C4D10A49C3E70A4806F014FF204633B029
:1031700030BD00BFE4D40110A035002088D5011077
:103180004CD5011028D50110A8D401109CD40110F1
:1031900070D5011038B504F0A1FB00250C4654EAA7
:1031A00005020AD04FF47A72002319F0BDFA00F537
:1031B0006A50054B1830186038BD03460348A0FB21
:1031C00003308009F3E700BF08330020D34D6210BD
:1031D00070B5072A82B016460C4624D9A2F108051C
:1031E00025F0070508350D4407F0AEF96B46CDE92B
:1031F0000001083403CB44F8080C44F8041CAC422A
:10320000F2D106F0070616B9002002B070BD07F033
:103210009BF93246CDE900012846694618F002FBC9
:10322000002002B070BD0D46EDE700BF2DE9F04172
:10323000002782B08846176017491646044618F0E2
:10324000B9FFC0B105461549204618F0B3FF044642
:1032500088B185420FD228460A2118F02FFC50B1C0
:10326000431CE41A0094404632464FF4C0610AF011
:10327000F1F9044610B902B0BDE8F08137600848A2
:1032800006F058FF6142074806F054FF0A2002B0DA
:10329000BDE8F04106F03ABEB0D70110CCD701101E
:1032A000E8D70110F0D701102DE9F0477C247F29E1
:1032B0001470089E56D9FF2940D903254C1C2C4474
:1032C0007F2CE7B254D9FF2C3CD908254FF0820A55
:1032D0004FF006084FF007094FF0050C4FF0040EB1
:1032E000EC409470D77082F801A082277F2902F801
:1032F0000E7002EB0C045FFA81FE44D9FF2946D917
:103300004FEA112C277084F802E084F801C04C19B0
:10331000A71CB74223D816460A46014670191F4615
:1033200018F080FA902301200022611C3960335587
:103330003B6819183960F254BDE8F087CC1CFF2CAB
:10334000E7B2C2D88124977054704FF00508072562
:103350004FF006094FF0040C4FF0030EC5E70020B4
:10336000BDE8F08701254C1C2C447F2CE7B2AAD87D
:1033700057704FF0040806254FF005094FF0030C75
:103380004FF0020EB1E702F80CE04546BFE7812797
:1033900084F801E04D462770B9E700BF2DE9F04100
:1033A000089F042B80460D46A7F10204079E05D016
:1033B000052B11793DD005318B4239D8AC4241D231
:1033C00004F10C039B0603D1012C88BF04F1FF34E8
:1033D000B5F5E16F02D90020BDE8F0812A464146EB
:1033E000244818F01FFADFF894C0234BCCF80050A3
:1033F00041462D1B224606981C6018F013FAFF2D3B
:1034000098BF45F4C24504F1020394BFADB24FF436
:10341000C2459F422CD30120612322183260069AB4
:10342000135533681A183260069AD554BDE8F081F6
:10343000515C002908BF4FF480718C4228BF0C46B4
:10344000AC42BDD3AB1C9F42C5D341462A46069829
:1034500018F0E8F9902301200022691C31600699D8
:103460004B553368191831600699CA54BDE8F0818C
:103470003460B0E744490020505000204C500020F8
:103480002DE9F04F81B0DDE90A96DDF830A0002982
:1034900074D07F291ED9FF2940F29F8003248D1DFF
:1034A0002C447F2C1BD9FF2C40F2898040F2A4656C
:1034B000271DAF425BD848F25327494D64BA6C8050
:1034C0002F804FF0060C4FF0080B4FF0070E05272A
:1034D000042410E001248D1D2C447F2CE3D85327B5
:1034E0003F4D4FF0040C2F706C704FF0060B4FF0F7
:1034F000050E032702244FF070087F2905F8048089
:1035000005EB07045FFA81F855D9FF2949D94FF037
:10351000820C0F0A84F8028084F800C067700C46A1
:1035200017460146224605EB0B00984618F07AF93B
:103530004FF0710E5C44CDE90B6ACDF828902E193E
:1035400005F804E0611D4FF001044FF0000C7470A9
:1035500043466FF001043A462148F47086F802C0F1
:1035600086F804C001B0BDE8F04FFFF717BF33681D
:103570009A1C92451BD36F21002205E033689A1CE8
:10358000924514D36A218822581C3060012009F822
:10359000031033681918316009F8032001B0BDE841
:1035A000F08F812784F80180F3462770B7E7002069
:1035B00001B0BDE8F08F05F80780E346AFE748F2B9
:1035C0005317074D4FF0050C2F80AC704FF0070BD1
:1035D0004FF0060E042703248DE701F1080462E78B
:1035E0009C3A002001292FD9F0B500240778012545
:1035F00000E0075D455DA61C15F0800F12D005F0B8
:103600007F0C0CF1FF35012D16D806EB0C0E714521
:1036100012D3855D76460334BCF1020F04BF045D0E
:1036200044EA0525AC198C4206D8BA4206D08C4231
:1036300002D2651C8D42DCD30020F0BD30441860FE
:10364000059B01201D60F0BD00207047014B1868EC
:10365000704700BFF4130020014B1868704700BF8B
:10366000703A002008B5074811F026F8012806D066
:10367000054B064A02280CBF1846104608BD0448F0
:1036800008BD00BF3423002020D801106CCC0110ED
:1036900018D80110024B1868003018BF012070477D
:1036A000402A0020014B1878704700BFDA900020B4
:1036B000014B1868704700BFA890002038B504F08F
:1036C0000DF900250C4654EA05020AD04FF47A722F
:1036D000002319F029F800F56A40054B60301860A6
:1036E00038BD03460348A0FB03308009F3E700BF61
:1036F0005C500020D34D6210014B1860704700BF32
:10370000F813002038B504F0E9F800250C4654EA17
:1037100005022DD04FF47A72002319F005F81A4BE8
:1037200000F51C501030186004F0D8F800250C4645
:1037300054EA0502034621D04FF47A72002318F0B0
:10374000F3FF0021114D124A00F56A43114C60331A
:1037500028682360116002F02FFB0F4806F0EAFC96
:103760000E4806F0E7FCBDE838400A2006F0CEBB64
:1037700003460B48A0FB03308009D0E70848A0FBB4
:1037800003239809DDE700BFB0900020F813002064
:103790000833002010600020E8D701106CDA011017
:1037A000D34D621008B5044810F086FF024B002884
:1037B00014BF1846002008BD342300200F4BD0B59D
:1037C0001C680CB92046D0BD04F088F800270E46CE
:1037D00056EA070203460AD10948A0FB03308009D4
:1037E000241AB4F52F7F8CBF00200120D0BD4FF4E8
:1037F0007A72002318F098FFF2E700BF14600020EF
:10380000D34D621038B510B90D4B186038BD04F0B7
:1038100065F800250C4654EA0502034609D109481B
:10382000A0FB0330800900F5EA30054BC03018607A
:1038300038BD4FF47A72002318F076FFF3E700BF2B
:1038400040410020D34D62100F4BD0B51C680CB91D
:103850002046D0BD04F042F800270E4656EA070283
:1038600003460AD10948A0FB03308009084B241AFB
:103870009C428CBF00200120D0BD4FF47A720023FF
:1038800018F052FFF2E700BF40410020D34D621014
:10389000C0D401002DE9F04F93B0894D04A806F083
:1038A0005FFD0AAC0AAA0023082104A815F078FBE2
:1038B0000FCCC5F82310C5F8272095F8251095F8EA
:1038C000272001F00F0102F03F027E4EC5F82B3099
:1038D0007D4B41F0400162F07F02C5F81F0085F882
:1038E000251085F82720336002F060F8002876D193
:1038F000764B06AC0FCB84E80F00754918F05AFCE4
:10390000002840F098807249079818F053FC00286E
:1039100040F091806E49089818F04CFC002840F067
:103920008A806B49099818F045FC002840F0838094
:10393000684B694CDFF8E091DFF8E0A1674D336038
:10394000674F97F800B0BBF1000F40F0A2806548C8
:1039500010F03AFE644810F037FE0123DFF894813E
:103960003B70624FC8F800B0C7F800B0504618F07E
:10397000F5F90023421C5146CDE901330093594823
:1039800011F058F95A4B82461860002847D120465A
:1039900018F0E4F90023421C2146CDE901330093DD
:1039A000514811F047F9044670BB2846514A524924
:1039B000FFF73CFC48464D4A5049FFF737FC50485A
:1039C00006F0B8FB3B68D8F8002031684D4806F097
:1039D000B1FB0A2006F09AFA13B0BDE8F08F4A4B0B
:1039E0000020336001F0E8FF0546012001F0E4FF0C
:1039F0008246022001F0E0FF8146032001F0DCFF57
:103A00000446002D9CD173E73D4806F093FB6142CC
:103A10003E4806F08FFB0A2006F078FAC5E73848E2
:103A200006F088FBCAF10001394806F083FB0A2042
:103A300006F06CFAABE72A4C2A482578EDB110F075
:103A4000C7FD294810F0C4FD264810F0BDFD2648EA
:103A500010F0BAFD002301202649244A20700B6093
:103A60001360274806F066FB2A4806F063FB0A202D
:103A700006F04CFA13B0BDE8F08F10F0A5FD1A481F
:103A800010F0A2FD01211B4A184B217015601D602A
:103A9000E7E7144810F09CFD134810F099FD114819
:103AA00010F092FD104810F08FFD012200233A70B3
:103AB000DFF840800D4FC8F800303B6056E700BF8C
:103AC000B4130020F41300206CCC0110A4D5011015
:103AD00050D9011068D9011048D7011028D601101B
:103AE000D990002034230020683A00204430002080
:103AF000703A0020402A002040240020442A002060
:103B0000E8D7011028DA011060D90110F0D90110AE
:103B1000C4D9011074D9011088D60110E8D601105B
:103B20002DE9F0412948D0B010F0C6FD0138C0B2EF
:103B3000012803D9002050B0BDE8F08120220021E7
:103B400008A817F04DFF4FF4807307AE336003F001
:103B5000C5FE00230A46134304462AD11C48A0FB95
:103B60000434A40900254FF480701A4910AB08AA48
:103B70000296019003910093092120230495134894
:103B800010F062FD804603F0A9FE2F460E4656EA6D
:103B90000702034614D04FF47A72002318F0C4FDD4
:103BA000B8F1000FC6D1001B08BF012050B0BDE81E
:103BB000F0814FF47A72002318F0B6FD0446D1E785
:103BC0000348A0FB03308009EAE700BF342300204C
:103BD000D34D6210D1310010002310B4054C0648BB
:103BE0000649074A23605DF8044B03600B601360CD
:103BF000FFF750BE402A0020443000204C500020E7
:103C0000505000202DE9F04FA94DADF25C4D2F68CA
:103C10000646884692461C46002F00F0B4800023DA
:103C2000B8F1030F236040F2998037787578F90670
:103C300001D5872D7AD09F4B186830B19E4A1278F3
:103C4000AA4200F0458100221A60A42D00F09B8159
:103C500024D9C02D00F0A780CB2D37D1B8F1040FA7
:103C600000F0C4823379002B00F003825A1D4245D4
:103C700000F2BC82721D032B40F0DE8213785C2BB5
:103C800000F0F883D4F80080DDF8802408F1020306
:103C90009A42C0F0E2816A238822EDE0202D00F0F4
:103CA000D780872D12D1F3789A2B00F0B1819D2B0C
:103CB00000F0AE81D4F80080DDF8801408F1020233
:103CC0009142C0F0AB836A238622B5E102234FF014
:103CD0000008DDF880249A42C0F0BF814FF0010B4C
:103CE0006D23002208EB0B0121600AF808302368DD
:103CF00003EB0B0121600AF80320D4F80080B278AE
:103D0000F378B8F1010F40F2CB80D04418F8020CE0
:103D100018F8011C41EA002100913846294601F0BB
:103D20004FFF58460DF25C4DBDE8F08FB8F1040F1F
:103D300011D03579002D40F01083B8F1060F0AD963
:103D4000B6F8052052BA95B2EB1D984503D3B5F5E8
:103D50002F7F40F2D4860023564A1360DDF880247A
:103D6000012A40F27F810121672221608AF8002028
:103D700022688B46511821600AF8023058460DF22D
:103D80005C4DBDE8F08F03F0A9FD3B460A461343A6
:103D9000844600F087804FF47A72002318F0C4FC48
:103DA00028603CE765AEDFF824B1444BDBF80090B7
:103DB0001B68994580F00882DDF88024B8F1040F73
:103DC000A2F1020108D0B8F1050F327900F0DE81CE
:103DD00005324245C0F0D9810A46A3EB090888455F
:103DE00028BF8846904528BF904608F10C029206ED
:103DF00004D1B8F1010F88BF08F1FF3830494246BD
:103E000049445046069317F00DFD069B09EB080246
:103E1000CBF800209A1AC4F8008008F1020100F0E3
:103E2000C682FF2ADDF880349ABF42F4C24292B2C1
:103E30004FF4C2428B42C0F01081612308F10101AE
:103E400021600AF8083023684FF0010B50E765AE97
:103E5000B2781AB9F378802B00F02A810021194832
:103E6000D4F800800160DDF8800408F10203984274
:103E7000C0F0F4806A23862208F1010121600AF86B
:103E8000083023684FF0010B591C21600AF8032009
:103E9000D4F80080B278B8F1010FF3783FF635AF6F
:103EA000002139E70848A0FB0C30800978E700BF03
:103EB0006036002004330020CB9000204C500020BE
:103EC000444900205C500020D34D62105050002027
:103ED000CF4AB178127891427FF4B5AECD4AF178ED
:103EE000127891427FF4AFAEB8F1040F00F0F58282
:103EF0003279002A40F06983B8F1060F40F2ED8272
:103F0000B6F8052052BA92B2D11D8845C0F0E582BC
:103F1000F11D00EB0208B8F52F7F00F2DE824FF0B2
:103F2000000BDFF80893484417F07CFCF07896F813
:103F300002C027F010028DF894214FEA182642465D
:103F40008DF8970149460DF29B108DF89A818DF8F6
:103F500098B18DF895518DF896C18DF8996117F04B
:103F600061FCAD4BA42D08F10708C3F800B000F0C8
:103F7000E38300F25D83202D3FF469AF872D40F08D
:103F8000E28365AE8FE6B8F1040F00F00481327968
:103F9000002A7CD0531D434500F23481914606F13E
:103FA000050800F049FFB9F1070F834640F0BD81D5
:103FB0004A464046994917F007FCBBF1010F00F053
:103FC0007182002840F0BE810122DFF86482944BA8
:103FD000D8F800901A70B9F1000F00F06F82DFF886
:103FE00054E20DF1940CBEE80F00ACE80F00DEF8CF
:103FF00000302CF8023B1B0C8CF80030DDF88034CC
:10400000142B00F2DF81D4F800804FF0000B76E62D
:10401000844BD3F80090B9F1000F79D10023814A85
:10402000D4F80080DDF88014136008F10202914298
:10403000C0F0F781692382224FF0010B08F10101E2
:1040400021600AF808302368591C21600AF803200F
:10405000D4F80080F378B27853E6B278F3784FF072
:10406000000B4EE64FF0000B58460DF25C4DBDE8DC
:10407000F08FB8F1060F40F2B980B6F805305BBAA0
:104080009BB2DA1D424500F2B180F21DF3E5B8F1B2
:10409000060F40F2B780B6F8052052BA1FFA82F92F
:1040A00009F10703434500F2AD8006F1070878E700
:1040B000B8F1040F3FF4D2AE3379002B40F0ED811C
:1040C000B8F1060F7FF6CAAEB6F805305BBA9BB200
:1040D000073343453FF6C2AE03F000FC00230A4617
:1040E000134300F0E6814FF47A72002318F01CFBB2
:1040F0004C4A00F56A40D4F8008060301060DDF86A
:10410000802408F102039A42A7D390230022B3E649
:1041100003F0E4FB00230A461343844600F09B812E
:104120004FF47A72002318F0FFFA4EF66023A9EBE1
:10413000000999453FF672AFB8F1040F00F0808195
:104140003379002B40F08C81B8F1060F40F2788172
:10415000B6F805305BBA9BB2DA1D9045C0F07081AD
:1041600006F10709012B04D999F800207C2A00F0F8
:10417000C781D4F80080DDF8802408F102039A4258
:10418000C0F074816A23802256E7B25C002A08BF1F
:104190004FF4807221E602234FF00008DDF88024FE
:1041A0009A42C0F038816723002208F101012160A2
:1041B0000AF8083023684FF0010B591C21600AF8F7
:1041C0000320D4F800809AE50022174BD4F8008031
:1041D000DDF880141A6008F102039942CBF8002040
:1041E000BFF448AE9346F378B2788AE5D4F80080FD
:1041F000DDF8802408F102039A42FFF42EAF672312
:10420000002239E6D4F8008008F10203C6E700BFB7
:10421000CC900020CD90002004330020A8D70110BE
:10422000DA9000205C5000204C50002048300020E4
:10423000A8900020B4D50110052B7FF423AD13788E
:104240005C2B7FF41FAD5378032B7FF41BAD937869
:104250005F2B7FF417ADD378C12B7FF413AD1379A7
:10426000023B0A2B3FF60EAD01A252F823F000BF2D
:1042700015430010853C0010853C0010FD420010E5
:10428000853C0010E7420010853C0010853C001082
:10429000853C0010C14200109D420010DDF88034C2
:1042A0003246CDE901430B214346CA48CDF800A070
:1042B000FFF774F8D4F800808346B278F37820E5ED
:1042C000DDF88034C44ACDE90143CDF800A011687F
:1042D00043463246C148FFF7D3F8D4F800808346FE
:1042E000B278F3780DE5DDF88034CDF800A0CDE9A3
:1042F0000143324643462621B948D9E7DDF88034E8
:10430000B84ACDE90143CDF800A0116843463246D2
:10431000B548E0E7DDF88034CDF800A0CDE90143F1
:10432000324643463D21B148C2E701280AD0B9F1DF
:10433000090F79D14A464046AD4917F045FA0028A1
:104340003FF44DAED4F80080DDF8802408F102037C
:104350009A4260D36A23822227E76B1D9845FFF4B7
:10436000FAAC711D2A46A34817F05CFA8721A24BCC
:10437000A24A19701560F178A14A27681170DDF81A
:104380008024A048BB1CB5789A420570FFF46AAE41
:1043900090234FF0010B0022791C21600AF80730AE
:1043A000236803EB0B0121600AF80320E6E4964B37
:1043B000CBF800201A60DDF880348B42FFF412AF96
:1043C00090233BE54FF014084FF0900E4FF0010B97
:1043D0004FF0000C0DF19409B9E80F00CAF8041071
:1043E000CAF80820B9F8001099F80220CAF80000AD
:1043F0008AF81220CAF80C30AAF81010C4F800800D
:104400008AF813E0236803EB0B0222600AF803C06A
:10441000D4F8008073E44FF0000B70E44FF0000B11
:1044200019E69B46F37816E6B9F10B0F8AD14A4696
:104430004046764917F0C8F900283FF4D0AD81E72F
:10444000D4F80080DDF8802408F102039A420DD3ED
:1044500067230022F0E56E48A0FB0C30800964E67B
:104460005A1D9045ECD306F105097BE6F3784FF031
:10447000000BF0E55378012B7FF404AC93787E2B8E
:104480007FF400ACDDF88034CDF800A0CDE9014325
:104490003246434614215F480AE7053343457FF619
:1044A0001BAEDBE400287FF44DAF5B4B83F800B01C
:1044B00095E5574BA3FB0023980919E603F00EFA84
:1044C0004B460A46134384467AD04FF47A7200234F
:1044D00018F02AF9C8F8000081E500221A60DDF81A
:1044E0008034012B7FF6BEAD0121672321608AF85D
:1044F000003023688B46591821600AF803203DE4F8
:1045000099F8018018F0800F00F09B8008F07F027E
:10451000511E01293FF62DAE911C99423FF629AE5E
:10452000022A99F8028040F049810422B9F80280F9
:1045300098FA98F81FFA88F802EB080199423FF6BA
:1045400018AE4FF0000C91440CAB009348460BABF7
:1045500085224146CDE909CCCDE90BCCFFF742F8E5
:104560008346002800F0D480F1782C4B2C4A9D29FA
:1045700018BF1A461046079210F09EF8012881468F
:1045800096F802805FD0022800F0E4804FF0000B24
:10459000244B2548C3F800B005F0CCFD4246F17825
:1045A000224805F0C7FD0A2005F0B0FCD4F80080D1
:1045B000DDF8802408F102039A42BFF484AB31E7AE
:1045C0001348A0FB0C30800984E7511D884584D333
:1045D000711D9EE404D6011044300020442A0020BE
:1045E000C8D50110402A002040240020B413002028
:1045F00010D6011048300020CB900020043300205A
:10460000CD900020CC9000204C5000201CD60110F2
:10461000D34D6210F0D50110DA9000203423002031
:10462000683A00205C500020E8D7011010D9011032
:10463000C02D3FF4B7ABCB2D40F0858065AEFFF7C2
:104640000DBB022278E7B8F1070F9FD1BBF1000F35
:1046500040F08580F3789A2B00F0FA8017AB19466A
:104660004FF48072B9F1010F06930A600A9B00F0C3
:10467000D480202B099A00F0BA80194610460023F6
:104680001DAA14F08DFC4FF0000C4FF480710698B9
:10469000C44B0DF194090290019103931DAA079850
:1046A000CDF810C0CDF80090202309210FF0CCFFE9
:1046B0008046B8F1000F40F08380DDF88034484632
:1046C0000093069B524619682346FEF7EDFD83468C
:1046D000D0B103F003F943460A461343844600F081
:1046E000E1804FF47A72002318F01EF8AE4A00F50C
:1046F0002F73AE48136005F01DFDF178AC4805F04E
:1047000019FD0A2005F002FCD4F80080F378A2E439
:104710000AAB0093484609AB8122FEF763FF0028ED
:104720007FF422AFD4F80080DDF8802408F1020382
:104730009A42BFF427AD75E69DF8982165AE002A30
:104740003FF4A9AC26E4D4F8008065AE08F102037A
:10475000FFF7BFBAB8F1110F7FF418AF76E7954BAA
:10476000D3F80080B8F1000F40F0A480924BD3F84A
:104770000080B8F1000F40F02B818C4805F0DAFC86
:104780008E4805F0D7FC0A2005F0C0FBFEF702FDBD
:104790002368DDF880149A1C9142C0F0888069215A
:1047A0008222581C20600AF803102368591C2160DB
:1047B0000AF8032023689846F3784CE40322BBE60A
:1047C0007A4805F0B7FCC8F100017D4805F0B2FC5D
:1047D0000A2005F09BFBD4F80080DDF8802408F166
:1047E00002039A42FFF41EAE6F23002224E44FF02E
:1047F000000E4FF4807C06986A490DF194090290EE
:1048000003910798CDF810E0CDF804C0CDF80090E2
:1048100009210FF019FF80464BE793427FF429AF3F
:10482000079B0DF1940993E8030089E803004846CB
:104830000FF042FF01280CBFD9F804000020CDF88A
:104840000090099B0022574911F078FD804630E71F
:104850005C4BD3F80080B8F1000F40F03481564B28
:10486000D3F80080B8F1000F00F01381CDF818B034
:1048700003F034F800230A461343844600F0048111
:104880004FF47A72002317F04FFF4F4BA8EB000054
:10489000984203D9069B002B00F0FB800023494A75
:1048A0001360DBE64FF47A70BCFBF0F01EE74FF0CC
:1048B000000B80E703F012F800230A4613438446F6
:1048C00017D04FF47A72002317F02EFF4EF66023B4
:1048D000A8EB000898453FF649AFB9F1020F0DD09B
:1048E0002368DDF880149A1C9142E0D36A21862265
:1048F00057E74FF47A70BCFBF0F0E7E70DF194094D
:1049000048460DF0D1FD0DA809F0CCF80FA809F02C
:10491000C9F811AA104617AB06930DF0B7FD06981B
:104920000DF0B4FD079B0DF1740893E8030088E8CF
:10493000030040460FF0C0FE023802280DAA94BFC3
:10494000D8F80400002011AB49460EF07DFE024667
:10495000002850D0069807920DF00AFE11A80DF01D
:1049600007FE0FA809F0A4F80DA809F0A1F8484621
:104970000DF00EFE079A0D48069205F0DBFB069A35
:10498000F1785242114805F0D5FB0A2005F0BEFA35
:104990002368DDF880149A1C914288D36F2100228D
:1049A000FFE600BFD131001014600020E8D70110ED
:1049B000BCD801101060002040410020D4D8011064
:1049C000A8D80110B0900020C0D4010028D8011050
:1049D00002F084FF00230A46134384464FD04FF46D
:1049E0007A72002317F0A0FE484BA8EB0000984213
:1049F0007FF673AFC1E6DDE90B23069948460DF05B
:104A000093FE02460028A5D1414B069ACDE900301D
:104A10000FA90DAB48460BF053FA0246002899D176
:104A20000FAB20224146184609F0F2F9079006988C
:104A30000DF09EFD11A80DF09BFD0FA809F038F8B0
:104A40000DA809F035F848460DF0A2FD079A002A96
:104A500091D1304805F06EFBF1782F4805F06AFBE4
:104A60000A2005F053FADDF88034404600935246A0
:104A700023462021FEF718FC236883469BE64FF46B
:104A80007A70BCFBF0F0AFE74FF47A70BCFBF0F04B
:104A9000FBE6204805F04EFB204805F04BFB0A20C2
:104AA00005F034FAFEF776FB00231D4A1D49D4F8C1
:104AB000008013600B60DDF8803408F1020293423D
:104AC000BFF4B8AAAEE402F009FF5B460A461343FE
:104AD00017D04FF47A72002317F026FE42F21072BC
:104AE000A8EB000393428CBF002301230E490693D9
:104AF000D1F80080B8F1000F3FF4CCAEB8E6F11D5C
:104B000030E44FF47A73B0FBF3F0E7E7C0D4010070
:104B1000D1310010E8D7011050D801106CD8011025
:104B20005C500020B090002040410020704700BF42
:104B3000704700BFB849B94B0A689A4203D00023B6
:104B4000B74A13707047F0B40D790C78EA43E0432C
:104B5000B44B42F3000540F300041D401C4085EABD
:104B6000520584EA500445F300021A4044F3000061
:104B7000184082EA550580EA540445F3000244F3E4
:104B800000001A40184082EA550280EA540042F3BD
:104B900000051D4040F300041C4085EA520284EAEF
:104BA000500042F3000540F300041D401C4085EA1C
:104BB000520584EA500445F300021A4044F3000011
:104BC000184082EA550580EA5404974F45F30002E5
:104BD00044F300001A40954E82EA550218403D7891
:104BE00080EA5400367885EA520540F3000442F327
:104BF00000021C4086EA50001A4060406A4040F3C0
:104C0000000442F300051C401D4084EA500485EA7C
:104C1000520544F3000045F3000218401A4080EAB0
:104C2000540482EA550544F3000045F3000218409D
:104C30001A4080EA540082EA550240F3000442F32D
:104C400000051C401D4084EA500085EA520240F3F2
:104C5000000442F300051C401D4084EA500485EA2C
:104C6000520544F3000045F3000218401A4080EA60
:104C7000540482EA550544F3000045F300026C4EEB
:104C800018401A4082EA550280EA540036787D784E
:104C900040F300041C4086EA500085EA520542F3C6
:104CA000000244401A40554044F30000184045F3C8
:104CB000000280EA54001A4082EA550240F30004E0
:104CC0001C4042F3000584EA50041D4085EA520569
:104CD00044F30000184045F3000280EA54001A40F3
:104CE00082EA550240F300041C4042F3000584EAC6
:104CF00050041D4085EA520544F30000184045F376
:104D0000000280EA54001A4082EA550240F300048F
:104D10001C4042F3000584EA50041D40454E85EADC
:104D2000520544F30000184045F3000280EA5400A5
:104D30001A40347882EA550240F3000735791F4063
:104D400084EA500442F3000684EA070085EA52052B
:104D500006EA03026A4040F300041C4042F30005E7
:104D600084EA50041D4044F3000085EA52051840CF
:104D700045F3000280EA54041A4082EA550544F3E0
:104D80000000184045F3000280EA54001A4040F346
:104D9000000482EA55021C4042F3000584EA5000F8
:104DA0001D4085EA520240F300041C4042F3000516
:104DB00084EA50041D4044F3000085EA520518407F
:104DC00045F3000280EA54041A4044F3000082EAEA
:104DD0005505184045F3000280EA54001A4040F39C
:104DE000000482EA55021C40504042F30002134086
:104DF00084EA50008A6843409A4204D0F0BC002301
:104E0000074A137070474B68012BF7D8F0BC044A6F
:104E1000DBB21370704700BF00C03F1047464353DA
:104E2000C99000202083B8ED05C03F1001C03F109D
:104E300002C03F1003C03F10014B1878704700BFFD
:104E4000C99000202DE9F043C54FC5B03B7883429F
:104E500000F00D83C34E6FEA000C06F04703DB43FE
:104E6000C14C43F30002224082EA530343F30002A1
:104E7000054622404CF30000204082EA530280EABB
:104E80005C0C42F3000323404CF3000083EA52021F
:104E9000204042F3000380EA5C00234040F3000C12
:104EA0000CEA040C83EA52038CEA500043F300023C
:104EB000224040F3000C82EA53030CEA040C43F353
:104EC00000028CEA500C22404CF30000204082EAA1
:104ED000530280EA5C0C42F3000323404CF30000D1
:104EE00083EA5202204042F3000380EA5C00234040
:104EF00040F3000C0CEA040C83EA52038CEA5000E5
:104F000083F0460343F3000240F3000C22400CEA16
:104F1000040C82EA53038CEA500C43F300024CF376
:104F200000002040224080EA5C0C82EA530242F3F7
:104F300000034CF300002340204083EA520280EA41
:104F40005C0042F3000340F3000C0CEA040C234025
:104F50008CEA500083EA520343F3000240F3000C52
:104F600022400CEA040C82EA53038CEA500C43F30F
:104F700000024CF300002040224080EA5C0C82EAF0
:104F8000530242F300034CF300002340204083EA25
:104F9000520280EA5C0042F3000340F3000C0CEA8A
:104FA000040C23408CEA500083EA520383F043034D
:104FB00040F3000C43F300020CEA040C22408CEA9C
:104FC000500C82EA53034CF30000204043F30002EC
:104FD00080EA5C0C224082EA53024CF3000042F368
:104FE00000032040234080EA5C0083EA520240F341
:104FF000000C0CEA040C42F300038CEA500023403E
:1050000083EA520340F3000C43F300020CEA040C61
:1050100022408CEA500C82EA53034CF300002040FB
:1050200043F3000280EA5C0C224082EA53024CF314
:10503000000042F300032040234080EA5C0083EA42
:10504000520240F3000C0CEA040C42F300038CEA19
:105050005000234083EA520340F3000C83F05303D3
:105060000CEA040C43F300018CEA500C21404CF391
:10507000000081EA5301204080EA5C0C41F3000209
:105080004CF30000224082EA510100EA040383EA63
:105090005C0041F30002224040F3000382EA510227
:1050A000234042F3000183EA5003214043F3000010
:1050B00081EA5202204080EA530342F3000121407A
:1050C00043F3000081EA5201204041F3000280EAEC
:1050D0005300224040F3000382EA5101234083EA57
:1050E000500041F30002224040F3000382EA5102E3
:1050F000234083EA500342F3000121405A4043F326
:10510000000381EA5202234053400DF10408F422C7
:10511000FF2107A80DF110090393CDE9016516F0F1
:105120005FFC98E8070089E80700EFF3108872B683
:105130004FF480514FF47F1017F016FB49464FF49F
:1051400080724FF47F1017F007FB88F31088074A2E
:105150001368B3420CD0002045B0BDE8F08300BF17
:10516000C9900020474643532083B8ED00C03F104C
:10517000107892F804C0C1436FEA0C0341F30000B9
:10518000204043F3000C80EA51000CEA040C40F389
:1051900000018CEA530C21404CF3000381EA5000DB
:1051A000234083EA5C0C40F3000121404CF30003F0
:1051B00081EA5001234041F3000083EA5C03204070
:1051C00043F3000C80EA51010CEA040C8CEA53030F
:1051D00041F30000204043F3000C80EA51000CEA48
:1051E000040C8CEA530C40F3000121404CF3000600
:1051F00081EA5000264086EA5C0640F30001DFF8B1
:105200007CE2214046F30003DFF874C281EA5001DA
:105210009EF800E0234083EA560341F300009CF827
:10522000006020408EEA510143F3000C41400CEA3B
:10523000040C86EA530686EA0C0341F30000204082
:1052400043F3000680EA5100264040F3000186EA5D
:105250005306214046F3000381EA5000234083EACD
:10526000560640F30001214046F3000381EA500155
:10527000234041F3000083EA5603204043F3000635
:1052800080EA5101264086EA530341F300002040A2
:1052900043F3000680EA5100264086EA530640F3B5
:1052A0000001214046F3000C81EA50000CEA040C96
:1052B0008CEA560C40F30001DFF8C8E121404CF3C2
:1052C00000036D4E81EA50019EF800E0234083EA1E
:1052D0005C0341F3000096F800C020408EEA5101C3
:1052E00043F30006414026408CEA530C8CEA060347
:1052F00041F30000204043F3000C80EA51000CEA27
:10530000040C40F300018CEA530C21404CF30003E1
:1053100081EA5000234083EA5C0C40F30001214005
:105320004CF3000381EA5001234041F3000083EA7B
:105330005C03204043F3000C80EA51010CEA040CAA
:105340008CEA530341F30000204043F3000C80EA51
:1053500051000CEA040C8CEA530C40F3000121408C
:105360004CF3000681EA5000264086EA5C0640F3D2
:105370000001DFF814E1214046F30003DFF80CC11F
:1053800081EA500123409EF800E083EA560341F38E
:1053900000009CF80060204043F3000C8EEA5101AD
:1053A00041400CEA040C86EA530686EA0C0341F3FA
:1053B0000000204043F3000680EA5100264040F3FD
:1053C000000186EA5306214046F3000381EA5000BB
:1053D000234083EA560640F30001214046F30003D0
:1053E00081EA5001234041F3000083EA5603204044
:1053F00043F3000680EA5101264086EA530341F355
:105400000000204043F3000680EA5100264040F3AC
:10541000000186EA5306214046F3000381EA50006A
:10542000234040F3000183EA5606214046F300037F
:1054300081EA5001234041F3000083EA56032040F3
:10544000594043F300031C4080EA510193684C40EB
:10545000A3427FF480AE5368012B3FF67CAE9D42A1
:105460007FF479AE01203D7045B0BDE8F0830120A6
:1054700045B0BDE8F08300BF06C03F1001C03F103B
:1054800005C03F1002C03F1003C03F1007C03F10CF
:1054900010B5EFF3108472B64FF480514FF47F10C3
:1054A00017F062F984F310880022024B01201A7071
:1054B00010BD00BFC9900020034A044B01280CBF57
:1054C00010461846704700BF0CC90110DCD101100E
:1054D000F0B401788A4AC94341F30003134083EAD8
:1054E000510141F30003134083EA510343F30001E8
:1054F000114081EA530141F30003134083EA510153
:1055000041F30003134083EA510343F300011140C8
:1055100081EA530141F30003134083EA51014378C8
:1055200041F30004144083EA5103634043F3000451
:10553000144084EA530444F30003134083EA540400
:1055400044F30003134083EA540343F3000414407C
:1055500084EA530444F300030146134083EA5404ED
:1055600044F30003134083EA540343F3000414405C
:1055700084EA5304857844F30003134085EA540415
:10558000634043F30006164086EA530646F30003E1
:10559000134083EA560646F30003134083EA56039A
:1055A00043F30006164086EA530646F3000515400D
:1055B00085EA560646F3000515404FF0FF3485EAAC
:1055C000560545F30006164086EA550611F8037F96
:1055D00046F30005154087EA56066E4046F300057F
:1055E000154085EA560545F30006164086EA55063D
:1055F00046F30005154085EA560646F300051540BA
:1056000085EA560545F30006164086EA550646F338
:105610000005154085EA560646F30005154085EA63
:10562000560545F300061346324082EA550600F15E
:10563000130511F8012F624042F300041C4084EA74
:10564000520444F300021A4082EA540444F3000274
:105650001A4082EA540242F300041C4084EA5202D7
:1056600042F300041C4084EA520444F300021A404E
:1056700082EA540444F300021A4082EA540242F3DC
:1056800000041C408D4284EA5204D2D14FF0FF3214
:1056900000F520551A4B74401735173010F8011FCC
:1056A0004A4042F30001194081EA520141F30002ED
:1056B0001A4082EA510141F300021A4082EA510283
:1056C00042F30001194081EA520242F300011940FD
:1056D00081EA520141F300021A4082EA510141F38A
:1056E00000021A4082EA510242F300011940854249
:1056F00081EA5202D2D16240D043F0BC704700BF71
:105700002083B8ED9F49A04B0A68F0B49A4240F05C
:10571000348140F6FE134A68013A9A4200F22D8124
:105720008A68013A9A4200F22881CA68013A9A428C
:1057300000F223810A69013A9A4200F21E81087838
:10574000924BC04340F300021A4082EA500242F3F7
:105750000000184080EA520040F300021A4082EA3A
:10576000500242F30000184080EA520040F3000269
:105770001A4082EA500242F30000184080EA5200C8
:1057800040F30002824C1A4082EA5002207842F331
:1057900000041C4080EA520080EA040242F3000048
:1057A000184080EA520040F300021A4082EA50009A
:1057B00040F300021A4082EA500242F3000018400F
:1057C00080EA520242F30000184080EA520040F39F
:1057D00000021A4082EA50006E4C40F300021A4068
:1057E00082EA5002207842F300071F4080EA52000C
:1057F000784040F300071F4087EA500747F3000056
:10580000184080EA570747F30000184080EA570025
:1058100040F300071F4087EA500040F300071F4095
:1058200087EA500747F3000018404FF0FF3C80EA3A
:10583000570747F300001840667880EA570040F3A6
:1058400000071F4086EA5000474047F300061E400D
:1058500086EA570747F300061E4086EA570646F3D6
:1058600000071F4087EA560646F300071F4087EAF5
:10587000560747F300061E4086EA570747F300061F
:105880001E4086EA570646F300071F4087EA560681
:1058900046F300071A464C693B403F483F4D83EAB8
:1058A000560710F8013B83EA0C0141F30003134053
:1058B00083EA510343F30001114081EA530343F3A8
:1058C0000001114081EA530141F30003134083EAD0
:1058D000510141F30003134083EA510343F30001F4
:1058E000114081EA530343F30001114081EA53015F
:1058F00041F300031340A84283EA510CD1D14FF089
:10590000FF31274D214A274E8CEA070315F8010B7A
:10591000414041F30000104080EA510040F3000193
:10592000114081EA500040F30001114081EA50012A
:1059300041F30000104080EA510141F300001040A3
:1059400080EA510040F30001114081EA500040F329
:105950000001114081EA500141F300001040B542BE
:1059600080EA5101D2D15940C9430C1BB4FA84F4E6
:105970000D4B64091C70F0BC704700240A4B1C706E
:10598000F0BC704700D03F10314B43532083B8ED3B
:1059900001D03F1002D03F1004D03F1014D03F1070
:1059A00018D03F1018F83F10D4900020014B187801
:1059B000704700BFD4900020064B1B783BB10328F2
:1059C00005D800EB800304485B02184470470020B0
:1059D000704700BFD490002018D03F1008B5054B89
:1059E00042F618021846002115F0FAFF024A02603A
:1059F00008BD00BF1C600020314B435303281CD856
:105A0000F8B514460E4D8300EF18D7F804C064446F
:105A1000661CB6F5206F01D90020F8BD1844460277
:105A200006F118006044284415F0FCFE00233544BC
:105A300025442B767C600120F8BD0020704700BF14
:105A40001C60002038B5314C6068002859D0A0682F
:105A5000002856D0E068002853D02069002850D094
:105A60002B4904F1180016F0A5FB002849D029495C
:105A700004F6182016F09EFB002842D02449264840
:105A800016F098FB00283CD02249244816F092FBDF
:105A9000002836D02046FFF71BFD6061EFF310852C
:105AA00072B64FF440511E4816F05EFE21464FF488
:105AB00024521B4816F050FE85F31088194B1A4AE1
:105AC000196891421ED140F6FE125B68013B934279
:105AD00018D81146134B9A68013A8A4212D8DA68EC
